:100000000C9434000C9451000C9451000C94510049
:100010000C9451000C9451000C9451000C94150157
:100020000C9451000C9451000C9451000C94E40079
:100030000C9451000C9451000C94B3000C9451009A
:100040000C9451000C9451000C9451000C945100EC
:100050000C9451000C9451000C9451000C945100DC
:100060000C9451000C94510011241FBECFEFD8E026
:10007000DEBFCDBF11E0A0E0B1E0EEEEF6E002C0E1
:1000800005900D92A231B107D9F711E0A2E1B1E0DC
:1000900001C01D92A731B107E1F70E9475010C94D0
:1000A00075030C940000CF92DF92EF92FF92CF93F2
:1000B000DF93EC01C880D980EA80FB80C701B601DC
:1000C0000E9446029B01AC01C701B6010E94A40137
:1000D00020E030E040E05FE30E94EA0287FD03C0D9
:1000E00084E690E002C08CE99FEF9D838C83888931
:1000F00099898230910561F08330910599F00197DB
:10010000C9F416BC80916E00826080936E0016C0A8
:10011000109285001092840080916F00826080931D
:100120006F000CC01092B2008091700082608093CA
:10013000700004C081E090E00E94750378949FB73E
:10014000F894809114019FBF8823C9F31092140181
:10015000EC85FD858C818083DF91CF91FF90EF90BE
:10016000DF90CF9008951F920F920FB60F92112437
:100170002F933F938F939F9380911201909113013E
:1001800001969093130180931201809114018130A4
:1001900091F02091120130911301809115019091FD
:1001A00016012817390738F081E080931401109266
:1001B0001301109212019F918F913F912F910F90F7
:1001C0000FBE0F901F9018951F920F920FB60F92AF
:1001D00011242F933F938F939F93809112019091BD
:1001E00013010196909313018093120180911401E1
:1001F000813091F02091120130911301809115010D
:10020000909116012817390738F081E08093140186
:1002100010921301109212019F918F913F912F9193
:100220000F900FBE0F901F9018951F920F920FB650
:100230000F9211242F933F938F939F9380911201DC
:100240009091130101969093130180931201809174
:100250001401813091F020911201309113018091AD
:100260001501909116012817390738F081E0809325
:10027000140110921301109212019F918F913F91DE
:100280002F910F900FBE0F901F901895FC01A1E8C1
:10029000B0E08C918D608C9382E090E093878287B0
:1002A000219AA0E8B0E08C9181688C93A8E8B0E036
:1002B00011961C921E921C92B587A48785B5836007
:1002C00085BD81E090E0978786872AE030E0309313
:1002D00016012093150124B5226024BD29EF27BD06
:1002E000918B808B80E090E00895CF92DF92EF9227
:1002F000FF9280E091E00E944601C12CD12C760152
:1003000060E070E0CB016093000170930101809385
:1003100002019093030180E091E00E9453008FEF6F
:10032000C81AD80AE80AF80AC701B6010E940902E9
:100330002FE632E143E05BE30E94EE0220E030E092
:10034000A9010E94A501DFCF5058BB27AA270ED0D4
:10035000F0C0E1D030F0E6D020F031F49F3F11F44E
:100360001EF4D6C00EF4E095E7FBA3C0E92FF2D04F
:1003700080F3BA17620773078407950718F071F4C2
:100380009EF521C10EF4E0950B2EBA2FA02D0B0186
:10039000B90190010C01CA01A0011124FF27591BCA
:1003A00099F0593F50F4503E68F11A16F040A22FD0
:1003B000232F342F4427585FF3CF46953795279541
:1003C000A795F0405395C9F77EF41F16BA0B620B40
:1003D000730B840BBAF09150A1F0FF0FBB1F661F87
:1003E000771F881FC2F70EC0BA0F621F731F841FCA
:1003F00048F4879577956795B795F7959E3F08F0F0
:10040000B3CF9395880F08F09927EE0F97958795AE
:100410000895E89409C097FB3EF4909580957095F7
:1004200061957F4F8F4F9F4F9923A9F0F92F96E940
:10043000BB279395F695879577956795B795F111B5
:10044000F8CFFAF4BB0F11F460FF1BC06F5F7F4F52
:100450008F4F9F4F16C0882311F096E911C0772364
:1004600021F09EE8872F762F05C0662371F096E86D
:10047000862F70E060E02AF09A95660F771F881F3C
:10048000DAF7880F9695879597F9089585D080F0CB
:100490009F3740F491110EF097C060E070E080E863
:1004A0009FEB089526F41B16611D711D811D07C069
:1004B00021C097F99F6780E870E060E00895882385
:1004C00071F4772321F09850872B762F07C066238D
:1004D00011F499270DC09051862B70E060E02AF04E
:1004E0009A95660F771F881FDAF7880F969587957C
:1004F00097F908959F3F31F0915020F487957795B3
:100500006795B795880F911D9695879597F90895EA
:100510009FEF80EC089500240A941616170618061B
:100520000906089500240A941216130614060506F7
:100530000895092E0394000C11F4882352F0BB0F88
:1005400040F4BF2B11F460FF04C06F5F7F4F8F4FEB
:100550009F4F089557FD9058440F551F59F05F3F26
:1005600071F04795880F97FB991F61F09F3F79F0D5
:1005700087950895121613061406551FF2CF469557
:10058000F1DF08C0161617061806991FF1CF8695D9
:100590007105610508940895E5DFA0F0BEE7B9177D
:1005A00088F4BB279F3860F41616B11D672F782F8B
:1005B0008827985FF7CF869577956795B11D9395B6
:1005C0009639C8F30895E894BB2766277727CB01AF
:1005D00097F9089566D008F48FEF08950BD0A9CF4E
:1005E0009ADF28F09FDF18F0952309F062CF90CFB3
:1005F0001124EACFAFDFA0F3959FD1F3950F50E020
:10060000551F629FF001729FBB27F00DB11D639FC4
:10061000AA27F00DB11DAA1F649F6627B00DA11D6A
:10062000661F829F2227B00DA11D621F739FB00D10
:10063000A11D621F839FA00D611D221F749F332780
:10064000A00D611D231F849F600D211D822F762F19
:100650006A2F11249F5750408AF0E1F088234AF016
:10066000EE0FFF1FBB1F661F771F881F9150504062
:10067000A9F79E3F510570F01CCFA6CF5F3FECF36A
:10068000983EDCF3869577956795B795F795E7954E
:100690009F5FC1F7FE2B880F911D9695879597F95F
:1006A0000895990F0008550FAA0BE0E8FEEF161603
:1006B0001706E807F907C0F012161306E407F50756
:1006C00098F0621B730B840B950B39F40A2661F0CA
:1006D000232B242B252B21F408950A2609F4A1406D
:0E06E000A6958FEF811D811D0895F894FFCF20
:1006EE000000000000000AD7233C000000000000BC
:0206FE000000FA
:00000001FF
