:100000000C9434000C9451000C9451000C94510049
:100010000C9451000C9451000C9451000C94370135
:100020000C9451000C9451000C9451000C94060156
:100030000C9451000C9451000C94D5000C94510078
:100040000C9451000C9451000C9451000C945100EC
:100050000C9451000C9451000C9451000C945100DC
:100060000C9451000C94510011241FBECFEFD8E026
:10007000DEBFCDBF11E0A0E0B1E0E6EEF6E002C0E9
:1000800005900D92AE31B107D9F711E0AEE1B1E0C4
:1000900001C01D92A332B107E1F70E94C0010C9488
:1000A00071030C940000CF92DF92EF92FF92CF93F6
:1000B000DF93EC01C880D980EA80FB802AE939E926
:1000C00049E15FE3C701B6010E94540287FF03C004
:1000D00084E690E002C080E090E09D838C8323E37F
:1000E00033E343EB5FE3C701B6010E94540287FF8D
:1000F00003C084E690E002C080E090E099878887A2
:100100002AE939E949E15FE3C701B6010E940A0320
:1001100087FD03C084E690E002C080E090E09F830A
:100120008E838C8D9D8D8230910561F08330910599
:1001300099F00197C9F416BC80916E00826080939B
:100140006E0016C0109285001092840080916F009E
:10015000826080936F000CC01092B200809170009A
:1001600082608093700004C081E090E00E9471037F
:1001700078949FB7F894809120019FBF8823C9F39A
:1001800010922001E889F9898C818083E88DF98DAE
:1001900088858083EC89FD898E818083DF91CF9172
:1001A000FF90EF90DF90CF9008951F920F920FB6BF
:1001B0000F9211242F933F938F939F9380911E0151
:1001C00090911F01019690931F0180931E018091D1
:1001D0002001813091F020911E0130911F0180910A
:1001E0002101909122012817390738F081E080938E
:1001F000200110921F0110921E019F918F913F913B
:100200002F910F900FBE0F901F9018951F920F9275
:100210000FB60F9211242F933F938F939F9380914A
:100220001E0190911F01019690931F0180931E0162
:1002300080912001813091F020911E0130911F01A9
:1002400080912101909122012817390738F081E02F
:100250008093200110921F0110921E019F918F9197
:100260003F912F910F900FBE0F901F9018951F92E6
:100270000F920FB60F9211242F933F938F939F935A
:1002800080911E0190911F01019690931F01809310
:100290001E0180912001813091F020911E0130914A
:1002A0001F0180912101909122012817390738F010
:1002B00081E08093200110921F0110921E019F91F6
:1002C0008F913F912F910F900FBE0F901F90189517
:1002D000CF93DF93FC01C1E8D0E088818D608883F3
:1002E00022E030E0378B268B229A60E870E0DB0159
:1002F0008C9181628C938AE890E0DC0111961C92CB
:100300001E921C92918F808F48814D604883338B61
:10031000228B229ADB014C9141624C93DC011196B5
:100320001C921E921C92958B848B88818D60888391
:1003300037872687219ADB018C9181688C93A8E806
:10034000B0E011961C921E921C92B18BA08B85B5C9
:10035000836085BD81E090E0938F828F2AE030E05A
:10036000309322012093210124B5226024BD29EF7E
:1003700027BD958F848F80E090E0DF91CF91089525
:10038000CF92DF92EF92FF9280E091E00E946801AD
:10039000C12CD12C760160E070E0CB0160930001AC
:1003A00070930101809302019093030180E091E03A
:1003B0000E9453008FEFC81AD80AE80AF80AC7014A
:1003C000B6010E9458022FE632E143E05BE30E944F
:1003D0000E0320E030E0A9010E94F001DFCF505869
:1003E000BB27AA270ED0DCC0CDD030F0D2D020F071
:1003F00031F49F3F11F41EF4C2C00EF4E095E7FB08
:10040000B8C0E92FDED080F3BA17620773078407FC
:10041000950718F071F49EF5F6C00EF4E0950B2EDA
:10042000BA2FA02D0B01B90190010C01CA01A00146
:100430001124FF27591B99F0593F50F4503E68F1A1
:100440001A16F040A22F232F342F4427585FF3CFE2
:10045000469537952795A795F0405395C9F77EF4B3
:100460001F16BA0B620B730B840BBAF09150A1F0FC
:10047000FF0FBB1F661F771F881FC2F70EC0BA0F82
:10048000621F731F841F48F4879577956795B7950A
:10049000F7959E3F08F0B3CF9395880F08F0992702
:1004A000EE0F97958795089540D008F481E0089560
:1004B000E89409C097FB3EF49095809570956195FE
:1004C0007F4F8F4F9F4F9923A9F0F92F96E9BB27B4
:1004D0009395F695879577956795B795F111F8CF30
:1004E000FAF4BB0F11F460FF1BC06F5F7F4F8F4F9B
:1004F0009F4F16C0882311F096E911C0772321F091
:100500009EE8872F762F05C0662371F096E8862F28
:1005100070E060E02AF09A95660F771F881FDAF77F
:10052000880F9695879597F90895990F0008550FAC
:10053000AA0BE0E8FEEF16161706E807F907C0F069
:1005400012161306E407F50798F0621B730B840B71
:10055000950B39F40A2661F0232B242B252B21F44B
:1005600008950A2609F4A140A6958FEF811D811DEB
:10057000089597F99F6780E870E060E008959FEF25
:1005800080EC089500240A9416161706180609062A
:10059000089500240A9412161306140605060895F9
:1005A000092E0394000C11F4882352F0BB0F40F481
:1005B000BF2B11F460FF04C06F5F7F4F8F4F9F4FC1
:1005C000089557FD9058440F551F59F05F3F71F043
:1005D0004795880F97FB991F61F09F3F79F08795AA
:1005E0000895121613061406551FF2CF4695F1DF33
:1005F00008C0161617061806991FF1CF86957105C3
:10060000610508940895E894BB2766277727CB01F6
:1006100097F908958ADF08F48FEF08950BD0C0CFC3
:10062000B1DF28F0B6DF18F0952309F0A2CFA7CFED
:100630001124EACFC6DFA0F3959FD1F3950F50E0C8
:10064000551F629FF001729FBB27F00DB11D639F84
:10065000AA27F00DB11DAA1F649F6627B00DA11D2A
:10066000661F829F2227B00DA11D621F739FB00DD0
:10067000A11D621F839FA00D611D221F749F332740
:10068000A00D611D231F849F600D211D822F762FD9
:100690006A2F11249F5750408AF0E1F088234AF0D6
:1006A000EE0FFF1FBB1F661F771F881F9150504022
:1006B000A9F79E3F510570F05CCFA6CF5F3FECF3EA
:1006C000983EDCF3869577956795B795F795E7950E
:1006D0009F5FC1F7FE2B880F911D9695879597F91F
:0606E0000895F894FFCF1D
:1006E600000000006400000064000AD7233C0000FC
:0E06F6000000000000000000000000000000F6
:00000001FF
