:100000000C9434000C9451000C9451000C94510049
:100010000C9451000C9451000C9451000C94E50088
:100020000C9451000C9451000C9451000C94B400A9
:100030000C9451000C9451000C9483000C945100CA
:100040000C9451000C9451000C9451000C945100EC
:100050000C9451000C9451000C9451000C945100DC
:100060000C9451000C94510011241FBECFEFD8E026
:10007000DEBFCDBF11E0A0E0B1E0E2E5F6E002C0F6
:1000800005900D92A831B107D9F711E0A8E1B1E0D0
:1000900001C01D92AD31B107E1F70E945B010C94E4
:1000A00027030C9400008230910561F083309105A4
:1000B00099F00197C9F416BC80916E00826080931C
:1000C0006E0016C0109285001092840080916F001F
:1000D000826080936F000CC01092B200809170001B
:1000E00082608093700004C081E090E00E9427034A
:1000F00078949FB7F89480911A019FBF8823C9F321
:1001000010921A0108951F920F920FB60F921124A8
:100110002F933F938F939F93809118019091190192
:100120000196909319018093180180911A018130F2
:1001300091F0209118013091190180911B0190914B
:100140001C012817390738F081E080931A011092BA
:100150001901109218019F918F913F912F910F904B
:100160000FBE0F901F9018951F920F920FB60F920F
:1001700011242F933F938F939F9380911801909117
:1001800019010196909319018093180180911A0129
:10019000813091F0209118013091190180911B015B
:1001A00090911C012817390738F081E080931A01DB
:1001B00010921901109218019F918F913F912F91E8
:1001C0000F900FBE0F901F9018951F920F920FB6B1
:1001D0000F9211242F933F938F939F938091180137
:1001E00090911901019690931901809318018091C3
:1001F0001A01813091F020911801309119018091FC
:100200001B0190911C012817390738F081E0809379
:100210001A0110921901109218019F918F913F912C
:100220002F910F900FBE0F901F901895CF93DF93D3
:10023000FC01C1E8D0E088818D60888382E090E095
:10024000918B808B229A40E850E0DA012C91216258
:100250002C932AE830E0D90111961C921E921C9230
:10026000338B228B28812D60288395878487219A60
:10027000DA012C9121682C93A8E8B0E011961C9229
:100280001E921C92B787A68725B5236025BD21E065
:1002900030E0358B248B90931C0180931B0184B537
:1002A000826084BD89EF87BD378B268B80E090E02C
:1002B000DF91CF910895CF92DF92EF92FF9280E08D
:1002C00091E00E941601C12CD12C760160E070E013
:1002D000CB01609300017093010180930201909320
:1002E000030120E030E040E450E40E940E0287FF6A
:1002F00003C084E690E002C080E090E090930701A4
:100300008093060180911601909117010E9453007D
:10031000E0911201F09113011082E0910E01F09131
:100320000F018091060180838FEFC81AD80AE80A6E
:10033000F80AC701B6010E9412022FE632E143E03B
:100340005BE30E94C40220E030E0A9010E94AA0100
:10035000C0CF5058BB27AA270ED0DCC0CDD030F07C
:10036000D2D020F031F49F3F11F41EF4C2C00EF43D
:10037000E095E7FBB8C0E92FDED080F3BA1762073B
:1003800073078407950718F071F49EF5F6C00EF414
:10039000E0950B2EBA2FA02D0B01B90190010C0195
:1003A000CA01A0011124FF27591B99F0593F50F4AD
:1003B000503E68F11A16F040A22F232F342F442705
:1003C000585FF3CF469537952795A795F0405395FD
:1003D000C9F77EF41F16BA0B620B730B840BBAF0CD
:1003E0009150A1F0FF0FBB1F661F771F881FC2F738
:1003F0000EC0BA0F621F731F841F48F4879577954C
:100400006795B795F7959E3F08F0B3CF9395880F02
:1004100008F09927EE0F97958795089540D008F436
:1004200081E00895E89409C097FB3EF4909580958B
:10043000709561957F4F8F4F9F4F9923A9F0F92FAA
:1004400096E9BB279395F695879577956795B79528
:10045000F111F8CFFAF4BB0F11F460FF1BC06F5F0E
:100460007F4F8F4F9F4F16C0882311F096E911C020
:10047000772321F09EE8872F762F05C0662371F041
:1004800096E8862F70E060E02AF09A95660F771F55
:10049000881FDAF7880F9695879597F90895990F31
:1004A0000008550FAA0BE0E8FEEF16161706E8073E
:1004B000F907C0F012161306E407F50798F0621B5F
:1004C000730B840B950B39F40A2661F0232B242B34
:1004D000252B21F408950A2609F4A140A6958FEF53
:1004E000811D811D089597F99F6780E870E060E0A5
:1004F00008959FEF80EC089500240A9416161706BD
:1005000018060906089500240A9412161306140604
:1005100005060895092E0394000C11F4882352F067
:10052000BB0F40F4BF2B11F460FF04C06F5F7F4F1F
:100530008F4F9F4F089557FD9058440F551F59F006
:100540005F3F71F04795880F97FB991F61F09F3FC0
:1005500079F087950895121613061406551FF2CFE9
:100560004695F1DF08C0161617061806991FF1CF39
:1005700086957105610508940895E894BB27662760
:100580007727CB0197F908950BD0C4CFB5DF28F0BA
:10059000BADF18F0952309F0A6CFABCF1124EECF28
:1005A000CADFA0F3959FD1F3950F50E0551F629FCE
:1005B000F001729FBB27F00DB11D639FAA27F00DBC
:1005C000B11DAA1F649F6627B00DA11D661F829FE3
:1005D0002227B00DA11D621F739FB00DA11D621FC8
:1005E000839FA00D611D221F749F3327A00D611DE5
:1005F000231F849F600D211D822F762F6A2F1124C7
:100600009F5750408AF0E1F088234AF0EE0FFF1F19
:10061000BB1F661F771F881F91505040A9F79E3F50
:10062000510570F060CFAACF5F3FECF3983EDCF34A
:10063000869577956795B795F795E7959F5FC1F78D
:10064000FE2B880F911D9695879597F90895F8943C
:02065000FFCFDA
:1006520000000000000064006F12033B0000000075
:08066200000000000000000090
:00000001FF
