:100000000C9434000C9451000C9451000C94510049
:100010000C9451000C9451000C9451000C94580114
:100020000C9451000C9451000C9451000C94270135
:100030000C9451000C9451000C94F6000C94510057
:100040000C9451000C9451000C9451000C945100EC
:100050000C9451000C9451000C9451000C945100DC
:100060000C9451000C94510011241FBECFEFD8E026
:10007000DEBFCDBF11E0A0E0B1E0ECE5F7E002C0EB
:1000800005900D92A433B107D9F721E0A4E3B1E0C4
:1000900001C01D92A933B207E1F70E94B6010C948A
:1000A000AC030C9400004F925F926F927F928F92FC
:1000B0009F92AF92BF92CF92DF92EF92FF92CF9337
:1000C000DF93EC018C8C9D8CAE8CBF8CC880D9806A
:1000D000EA80FB8048A059A06AA07BA0A3019201FE
:1000E000C701B6010E94520287FD09C0A301920117
:1000F000C701B6010E94E5019B01AC0103C020E0ED
:1001000030E0A901C501B4010E94E6016B017C0148
:100110006C837D838E839F8320E030E040E251E456
:100120000E945202881F8827881F282F30E03B8FAB
:100130002A8F811103C0C12CD12C7601C886D986A3
:10014000EA86FB862CA13DA14EA15FA1C701B601A5
:100150000E943F036C877D878E879F870E9457028E
:10016000798F688F8AA99BA98230910561F08330CD
:10017000910599F00197C9F416BC80916E008260D8
:1001800080936E0016C010928500109284008091BA
:100190006F00826080936F000CC01092B20080915B
:1001A000700082608093700004C081E090E00E9443
:1001B000AC0378949FB7F894809136019FBF882351
:1001C000C9F310923601EEA5FFA5888D8083DF91DB
:1001D000CF91FF90EF90DF90CF90BF90AF909F9026
:1001E0008F907F906F905F904F9008951F920F9225
:1001F0000FB60F9211242F933F938F939F9380916B
:10020000340190913501019690933501809334012A
:1002100080913601813091F0209134013091350187
:1002200080913701909138012817390738F081E023
:100230008093360110923501109234019F918F9175
:100240003F912F910F900FBE0F901F9018951F9206
:100250000F920FB60F9211242F933F938F939F937A
:1002600080913401909135010196909335018093EE
:10027000340180913601813091F020913401309128
:10028000350180913701909138012817390738F0EE
:1002900081E08093360110923501109234019F91D4
:1002A0008F913F912F910F900FBE0F901F90189537
:1002B0001F920F920FB60F9211242F933F938F939B
:1002C0009F9380913401909135010196909335016F
:1002D0008093340180913601813091F02091340176
:1002E00030913501809137019091380128173907F5
:1002F00038F081E08093360110923501109234017C
:100300009F918F913F912F910F900FBE0F901F9053
:100310001895FC0185B5836085BD41E050E051AB87
:1003200040AB22E030E0309338012093370184B5B0
:10033000826084BD89EF87BD53AB42ABA1E8B0E0DA
:100340008C918D608C9335A724A7219AA0E8B0E00A
:100350008C9181688C93A8E8B0E011961C921E9253
:100360001C92B7A7A6A780E090E00895CF92DF92F5
:10037000EF92FF9280E091E00E948901C12CD12C84
:10038000760160E070E0CB016093000170930101A1
:10039000809302019093030180E091E00E9453005A
:1003A0008FEFC81AD80AE80AF80AC701B6010E94F6
:1003B0008D022FE632E143E05BE30E943F0320E041
:1003C00030E0A9010E94E601DFCF5058BB27AA27E1
:1003D0000E94FD010C9405030E94F70238F00E9470
:1003E000FE0220F039F49F3F19F426F40C94F40235
:1003F0000EF4E095E7FB0C94EE02E92F0E94160341
:1004000058F3BA17620773078407950720F079F449
:10041000A6F50C9438030EF4E0950B2EBA2FA02D00
:100420000B01B90190010C01CA01A0011124FF27A1
:10043000591B99F0593F50F4503E68F11A16F0409C
:10044000A22F232F342F4427585FF3CF469537959B
:100450002795A795F0405395C9F77EF41F16BA0B60
:10046000620B730B840BBAF09150A1F0FF0FBB1F0E
:10047000661F771F881FC2F70EC0BA0F621F731F57
:10048000841F48F4879577956795B795F7959E3FB4
:1004900008F0B0CF9395880F08F09927EE0F979545
:1004A000879508950E94CA0208F481E008950E9489
:1004B0005E026894B1110C94390308950E941E03E2
:1004C00088F09F5798F0B92F9927B751B0F0E1F015
:1004D000660F771F881F991F1AF0BA95C9F714C0C5
:1004E000B13091F00E943803B1E008950C943803C4
:1004F000672F782F8827B85F39F0B93FCCF38695FE
:1005000077956795B395D9F73EF49095809570955A
:1005100061957F4F8F4F9F4F0895E89409C097FBD7
:100520003EF490958095709561957F4F8F4F9F4FCA
:100530009923A9F0F92F96E9BB279395F69587950E
:1005400077956795B795F111F8CFFAF4BB0F11F4D1
:1005500060FF1BC06F5F7F4F8F4F9F4F16C0882378
:1005600011F096E911C0772321F09EE8872F762FAE
:1005700005C0662371F096E8862F70E060E02AF0EF
:100580009A95660F771F881FDAF7880F96958795DB
:1005900097F90895990F0008550FAA0BE0E8FEEFB0
:1005A00016161706E807F907C0F012161306E40737
:1005B000F50798F0621B730B840B950B39F40A2630
:1005C00061F0232B242B252B21F408950A2609F40E
:1005D000A140A6958FEF811D811D089597F99F6712
:1005E00080E870E060E008959FEF80EC08950024BB
:1005F0000A941616170618060906089500240A9488
:1006000012161306140605060895092E0394000C0D
:1006100011F4882352F0BB0F40F4BF2B11F460FF9C
:1006200004C06F5F7F4F8F4F9F4F089557FD9058C5
:10063000440F551F59F05F3F71F04795880F97FBA6
:10064000991F61F09F3F79F0879508951216130660
:100650001406551FF2CF4695F1DF08C0161617068F
:100660001806991FF1CF86957105610508940895C4
:10067000E894BB2766277727CB0197F908950E9456
:1006800052030C9405030E94F70238F00E94FE0208
:1006900020F0952311F00C94EE020C94F402112436
:1006A0000C9439030E94160370F3959FC1F3950FC4
:1006B00050E0551F629FF001729FBB27F00DB11DE6
:1006C000639FAA27F00DB11DAA1F649F6627B00D76
:1006D000A11D661F829F2227B00DA11D621F739F5F
:1006E000B00DA11D621F839FA00D611D221F749F6D
:1006F0003327A00D611D231F849F600D211D822FB4
:10070000762F6A2F11249F5750409AF0F1F08823DA
:100710004AF0EE0FFF1FBB1F661F771F881F915007
:100720005040A9F79E3F510580F00C94EE020C94C6
:1007300039035F3FE4F3983ED4F386957795679548
:10074000B795F795E7959F5FC1F7FE2B880F911D31
:0C0750009695879597F90895F894FFCFCF
:10075C00000000000000000000000000000000008D
:10076C00000000000000000000000100000000007C
:10077C00000000000000A0406F12033B00000000CE
:04078C000000000069
:00000001FF
