:100000000C9434000C9451000C9451000C94510049
:100010000C9451000C9451000C9451000C941B0151
:100020000C9451000C9451000C9451000C94EA0073
:100030000C9451000C9451000C94B9000C94510094
:100040000C9451000C9451000C9451000C945100EC
:100050000C9451000C9451000C9451000C945100DC
:100060000C9451000C94510011241FBECFEFD8E026
:10007000DEBFCDBF11E0A0E0B1E0ECE8F7E002C0E8
:1000800005900D92A831B107D9F721E0A8E1B1E0C0
:1000900001C01D92AD31B207E1F70E9485010C94B9
:1000A000C4030C940000CF93DF93EC0180917C009B
:1000B000857E826080937C0080917A00806480934A
:1000C0007A0080917A0086FDFCCF60917800709173
:1000D000790080E090E00E94C90220E030E042E533
:1000E00053E40E94570320E030EC4FE754E40E94B1
:1000F00021026C837D838E839F830E949302798784
:1001000068878E899F898230910561F083309105DF
:1001100099F00197C9F416BC80916E0082608093BB
:100120006E0016C0109285001092840080916F00BE
:10013000826080936F000CC01092B20080917000BA
:1001400082608093700004C081E090E00E94C4034C
:1001500078949FB7F89480911A019FBF8823C9F3C0
:1001600010921A01EA89FB8988858083DF91CF91FB
:1001700008951F920F920FB60F9211242F933F9361
:100180008F939F93809118019091190101969093FC
:1001900019018093180180911A01813091F020910A
:1001A00018013091190180911B0190911C012817B1
:1001B000390738F081E080931A01109219011092EA
:1001C00018019F918F913F912F910F900FBE0F902B
:1001D0001F9018951F920F920FB60F9211242F9314
:1001E0003F938F939F9380911801909119010196ED
:1001F000909319018093180180911A01813091F038
:10020000209118013091190180911B0190911C01DE
:100210002817390738F081E080931A0110921901EC
:10022000109218019F918F913F912F910F900FBEC7
:100230000F901F9018951F920F920FB60F921124D6
:100240002F933F938F939F93809118019091190161
:100250000196909319018093180180911A018130C1
:1002600091F0209118013091190180911B0190911A
:100270001C012817390738F081E080931A01109289
:100280001901109218019F918F913F912F910F901A
:100290000FBE0F901F901895FC01A1E8B0E08C9163
:1002A0008D608C9342E050E0518B408B219AA0E806
:1002B000B0E08C9181688C93A8E8B0E011961C9214
:1002C0001E921C92B38BA28BACE7B0E08C91806C39
:1002D0008C93AAE7B0E08C9187688C93178616867A
:1002E00085B5836085BD21E030E0358B248B50934C
:1002F0001C0140931B0184B5826084BD89EF87BDDA
:10030000378B268B80E090E00895CF92DF92EF92BA
:10031000FF9280E091E00E944C01C12CD12C76012B
:1003200060E070E0CB016093000170930101809365
:1003300002019093030180E091E00E9453008FEF4F
:10034000C81AD80AE80AF80AC701B6010E94C90209
:100350002FE632E143E05BE30E94570320E030E008
:10036000A9010E94B501DFCF5058BB27AA270E94E0
:10037000CC010C941D030E940F0338F00E94160359
:1003800020F039F49F3F19F426F40C940C030EF47A
:10039000E095E7FB0C940603E92F0E942E0358F327
:1003A000BA17620773078407950720F079F4A6F55A
:1003B0000C9450030EF4E0950B2EBA2FA02D0B01D8
:1003C000B90190010C01CA01A0011124FF27591B9A
:1003D00099F0593F50F4503E68F11A16F040A22FA0
:1003E000232F342F4427585FF3CF46953795279511
:1003F000A795F0405395C9F77EF41F16BA0B620B10
:10040000730B840BBAF09150A1F0FF0FBB1F661F56
:10041000771F881FC2F70EC0BA0F621F731F841F99
:1004200048F4879577956795B795F7959E3F08F0BF
:10043000B0CF9395880F08F09927EE0F9795879581
:1004400008950E9435020C941D030E94160358F073
:100450000E940F0340F029F45F3F29F00C9406033B
:1004600051110C9451030C940C030E942E0368F359
:100470009923B1F3552391F3951B550BBB27AA275D
:1004800062177307840738F09F5F5F4F220F331F97
:10049000441FAA1FA9F335D00E2E3AF0E0E832D05F
:1004A00091505040E695001CCAF72BD0FE2F29D062
:1004B000660F771F881FBB1F261737074807AB0734
:1004C000B0E809F0BB0B802DBF01FF2793585F4FA9
:1004D0003AF09E3F510578F00C9406030C945103BA
:1004E0005F3FE4F3983ED4F3869577956795B7958B
:1004F000F7959F5FC9F7880F911D9695879597F996
:100500000895E1E0660F771F881FBB1F621773070E
:100510008407BA0720F0621B730B840BBA0BEE1F23
:1005200088F7E09508950E949A026894B1110C949E
:10053000510308950E94360388F09F5798F0B92F11
:100540009927B751B0F0E1F0660F771F881F991F08
:100550001AF0BA95C9F714C0B13091F00E94500357
:10056000B1E008950C945003672F782F8827B85F67
:1005700039F0B93FCCF3869577956795B395D9F760
:100580003EF490958095709561957F4F8F4F9F4F6A
:100590000895E89409C097FB3EF490958095709576
:1005A00061957F4F8F4F9F4F9923A9F0F92F96E9BF
:1005B000BB279395F695879577956795B795F11134
:1005C000F8CFFAF4BB0F11F460FF1BC06F5F7F4FD1
:1005D0008F4F9F4F16C0882311F096E911C07723E3
:1005E00021F09EE8872F762F05C0662371F096E8EC
:1005F000862F70E060E02AF09A95660F771F881FBB
:10060000DAF7880F9695879597F9089597F99F6778
:1006100080E870E060E008959FEF80EC089500248A
:100620000A941616170618060906089500240A9457
:1006300012161306140605060895092E0394000CDD
:1006400011F4882352F0BB0F40F4BF2B11F460FF6C
:1006500004C06F5F7F4F8F4F9F4F089557FD905895
:10066000440F551F59F05F3F71F04795880F97FB76
:10067000991F61F09F3F79F0879508951216130630
:100680001406551FF2CF4695F1DF08C0161617065F
:100690001806991FF1CF8695710561050894089594
:1006A000E894BB2766277727CB0197F908950E9426
:1006B0006A030C941D030E940F0338F00E94160376
:1006C00020F0952311F00C9406030C940C031124D4
:1006D0000C9451030E942E0370F3959FC1F3950F64
:1006E00050E0551F629FF001729FBB27F00DB11DB6
:1006F000639FAA27F00DB11DAA1F649F6627B00D46
:10070000A11D661F829F2227B00DA11D621F739F2E
:10071000B00DA11D621F839FA00D611D221F749F3C
:100720003327A00D611D231F849F600D211D822F83
:10073000762F6A2F11249F5750409AF0F1F08823AA
:100740004AF0EE0FFF1FBB1F661F771F881F9150D7
:100750005040A9F79E3F510580F00C9406030C947D
:1007600051035F3FE4F3983ED4F386957795679500
:10077000B795F795E7959F5FC1F7FE2B880F911D01
:0C0780009695879597F90895F894FFCF9F
:10078C00000000000000000000006F12033B00009E
:08079C00000000000000000055
:00000001FF
