:100000000C9434000C9451000C9451000C94510049
:100010000C9451000C9451000C9451000C94260146
:100020000C9451000C9451000C9451000C94F50068
:100030000C9451000C9451000C94C4000C94510089
:100040000C9451000C9451000C9451000C945100EC
:100050000C9451000C9451000C9451000C945100DC
:100060000C9451000C94510011241FBECFEFD8E026
:10007000DEBFCDBF11E0A0E0B1E0E8EFF6E002C0E6
:1000800005900D92AA32B107D9F721E0AAE2B1E0BA
:1000900001C01D92AF32B207E1F70E9484010C94B7
:1000A0007A030C940000CF92DF92EF92FF92CF93ED
:1000B000DF93EC01CE88DF88E88CF98C2A8D3B8DAC
:1000C0004C8D5D8D688179818A819B810E9420029F
:1000D00087FD05C02A893B894C895D8903C020E0E2
:1000E00030E0A901C701B6010E94B4016C837D8391
:1000F0008E839F832E853F85488959890E940D03F1
:10010000688779878A879B870E9425027D876C870D
:1001100088A599A58230910561F08330910599F009
:100120000197C9F416BC80916E00826080936E00C6
:1001300016C0109285001092840080916F0082603A
:1001400080936F000CC01092B200809170008260AA
:100150008093700004C081E090E00E947A0378945C
:100160009FB7F89480912C019FBF8823C9F3109208
:100170002C01ECA1FDA18C858083DF91CF91FF90B4
:10018000EF90DF90CF9008951F920F920FB60F92CD
:1001900011242F933F938F939F9380912A019091E5
:1001A0002B01019690932B0180932A0180912C01C1
:1001B000813091F020912A0130912B0180912D0105
:1001C00090912E012817390738F081E080932C0197
:1001D00010922B0110922A019F918F913F912F91A4
:1001E0000F900FBE0F901F9018951F920F920FB691
:1001F0000F9211242F933F938F939F9380912A0105
:1002000090912B01019690932B0180932A0180916C
:100210002C01813091F020912A0130912B018091A5
:100220002D0190912E012817390738F081E0809335
:100230002C0110922B0110922A019F918F913F91D6
:100240002F910F900FBE0F901F9018951F920F9235
:100250000FB60F9211242F933F938F939F9380910A
:100260002A0190912B01019690932B0180932A01F2
:1002700080912C01813091F020912A0130912B0145
:1002800080912D0190912E012817390738F081E0D7
:1002900080932C0110922B0110922A019F918F9133
:1002A0003F912F910F900FBE0F901F901895FC015A
:1002B000A1E8B0E08C918D608C9342E050E053A3B4
:1002C00042A3219AA0E8B0E08C9181688C93A8E8C1
:1002D000B0E011961C921E921C92B5A3A4A385B502
:1002E000836085BD21E030E037A326A350932E0123
:1002F00040932D0184B5826084BD89EF87BD31A70D
:1003000020A780E090E00895CF92DF92EF92FF92D5
:1003100080E091E00E945701C12CD12C760160E071
:1003200070E0CB01609300017093010180930201A2
:100330009093030180E091E00E9453008FEFC81A70
:10034000D80AE80AF80AC701B6010E945B022FE644
:1003500032E143E05BE30E940D0320E030E0A901BD
:100360000E94B401DFCF5058BB27AA270E94CB01BF
:100370000C94D3020E94C50238F00E94CC0220F0F7
:1003800039F49F3F19F426F40C94C2020EF4E09560
:10039000E7FB0C94BC02E92F0E94E40258F3BA1761
:1003A000620773078407950720F079F4A6F50C948B
:1003B00006030EF4E0950B2EBA2FA02D0B01B90108
:1003C00090010C01CA01A0011124FF27591B99F0CB
:1003D000593F50F4503E68F11A16F040A22F232FD7
:1003E000342F4427585FF3CF469537952795A79527
:1003F000F0405395C9F77EF41F16BA0B620B730BCE
:10040000840BBAF09150A1F0FF0FBB1F661F771F3E
:10041000881FC2F70EC0BA0F621F731F841F48F4F3
:10042000879577956795B795F7959E3F08F0B0CF7C
:100430009395880F08F09927EE0F97958795089563
:100440000E94980208F481E008950E942C026894AA
:10045000B1110C94070308950E94EC0288F09F5795
:1004600098F0B92F9927B751B0F0E1F0660F771FD8
:10047000881F991F1AF0BA95C9F714C0B13091F0CE
:100480000E940603B1E008950C940603672F782FAD
:100490008827B85F39F0B93FCCF386957795679593
:1004A000B395D9F73EF490958095709561957F4FFF
:1004B0008F4F9F4F0895E89409C097FB3EF49095A5
:1004C0008095709561957F4F8F4F9F4F9923A9F02D
:1004D000F92F96E9BB279395F695879577956795BC
:1004E000B795F111F8CFFAF4BB0F11F460FF1BC000
:1004F0006F5F7F4F8F4F9F4F16C0882311F096E993
:1005000011C0772321F09EE8872F762F05C0662340
:1005100071F096E8862F70E060E02AF09A95660FF9
:10052000771F881FDAF7880F9695879597F90895B2
:10053000990F0008550FAA0BE0E8FEEF16161706F4
:10054000E807F907C0F012161306E407F50798F05C
:10055000621B730B840B950B39F40A2661F0232B75
:10056000242B252B21F408950A2609F4A140A695F1
:100570008FEF811D811D089597F99F6780E870E0D6
:1005800060E008959FEF80EC089500240A94161609
:10059000170618060906089500240A941216130671
:1005A000140605060895092E0394000C11F48823FF
:1005B00052F0BB0F40F4BF2B11F460FF04C06F5F1B
:1005C0007F4F8F4F9F4F089557FD9058440F551FF1
:1005D00059F05F3F71F04795880F97FB991F61F0C5
:1005E0009F3F79F087950895121613061406551F3C
:1005F000F2CF4695F1DF08C0161617061806991FA8
:10060000F1CF86957105610508940895E894BB279C
:1006100066277727CB0197F908950E9420030C9451
:10062000D3020E94C50238F00E94CC0220F095232C
:1006300011F00C94BC020C94C20211240C94070318
:100640000E94E40270F3959FC1F3950F50E0551F8F
:10065000629FF001729FBB27F00DB11D639FAA2717
:10066000F00DB11DAA1F649F6627B00DA11D661F66
:10067000829F2227B00DA11D621F739FB00DA11D87
:10068000621F839FA00D611D221F749F3327A00D41
:10069000611D231F849F600D211D822F762F6A2FDD
:1006A00011249F5750409AF0F1F088234AF0EE0F42
:1006B000FF1FBB1F661F771F881F91505040A9F76F
:1006C0009E3F510580F00C94BC020C9407035F3FE1
:1006D000E4F3983ED4F3869577956795B795F795AB
:1006E000E7959F5FC1F7FE2B880F911D9695879523
:0806F00097F90895F894FFCF7B
:1006F800000000000000B4420000C6410000CDCC5C
:100708008C3E0000B44200000000000000006F12A0
:0A071800033B000000000000000099
:00000001FF
